:020000040800F2
:10000000700A0020550200085D0200085F02000827
:100010006102000863020008650200080000000099
:10002000000000000000000000000000670200085F
:1000300069020008000000006B020008490A00087D
:100040006F0200086F0200086F0200086F020008CC
:100050006F0200086F0200086F0200086F020008BC
:100060006F0200086F0200086F0200086F020008AC
:100070006F0200086F0200086F0200086F0200089C
:100080006F0200086F0200086F0200086F0200088C
:100090006F0200086F0200086F0200086F0200087C
:1000A0006F0200086F0200086F0200086F0200086C
:1000B0006F0200086F0200086F0200086F0200085C
:1000C0006F0200086F0200086F0200086F0200084C
:1000D0006F0200086F0200086F020008C50B0008DD
:1000E0006F0200086F0200086F0200086F0200082C
:1000F0006F0200086F0200086F0200086F0200081C
:100100006F0200086F0200086F0200086F0200080B
:100110006F0200086F0200086F0200086F020008FB
:100120006F0200086F0200086F0200086F020008EB
:100130006F0200086F0200086F0200086F020008DB
:100140006F0200086F0200086F0200086F020008CB
:100150006F0200086F0200086F0200086F020008BB
:100160006F0200086F0200086F0200086F020008AB
:100170006F0200086F0200086F0200080000000014
:100180006F0200086F02000800F002F800F052F859
:1001900014A696E8000CB244B344DA4501D100F04D
:1001A00049F8BAE80F000FA696E83000A5EB040561
:1001B00004EB0607AAEB0704A7F101074FEA1515A0
:1001C0004FEA3414A4F10104AC4201D300F032F838
:1001D00013F0010F18BFFB1A43F0010300F001F800
:1001E000DBE718478C0E0000AC0E0000103A24BF6D
:1001F00078C878C1FAD8520724BF30C830C144BF8C
:1002000004680C6070470000704700000023002461
:1002100000250026103A28BF78C1FBD8520728BF16
:1002200030C148BF0B6070471FB500F0F3FE1FBD23
:1002300010B510BD00F03FF91146FFF7F5FF00F0D3
:100240003DFE00F05DF903B4FFF7F2FF03BC00F0E0
:1002500065F900000948804709480047FEE7FEE7C6
:10026000FEE7FEE7FEE7FEE7FEE7FEE7FEE7FEE766
:1002700004480549054A064B70470000890B0008F1
:100280008901000870040020700A00207006002018
:100290007006002053EA020C00F069802DE9F04B53
:1002A0004FF00006002B1FBFB3FA83F503FA05F4E5
:1002B00024FA05F65E4012BF1643B2FA82F502FA3E
:1002C00005F4C5F120051EBF22FA05FC44EA0C0422
:1002D000203556EA044C4FEA144418BF641C4FF012
:1002E00000084FF00009904271EB030C39D300294C
:1002F00019BFB1FA81F701FA07F6B0FA80F700FAF0
:1003000007F6C7F120071EBF20FA07FC46EA0C06D5
:100310002037B6FBF4FCA7EB0507103F07F01F0BD7
:10032000CBF120062CFA06F60CFA0BFB44BFB346C1
:100330000026202FA4BF5E464FF0000B5BEA060CA0
:1003400008BF4FF0010B19EB0B0948EB0608ABFB9C
:10035000027C06FB02CC0BFB03CCC01B71EB0C0137
:10036000C1E70B46024641464846BDE8F08B13B54F
:10037000084318BF4FF0FF300146AFF30080BDE8DF
:100380001C40704710B5431C02E010F8011B71B10E
:100390008107FAD14FF0013202C88C1A8C4314EA5B
:1003A000C211F9D0C01A0A0603D0C01E10BDC01A6F
:1003B00010BD0A0401D0801E10BD0902FCD0401EF1
:1003C00010BD032A40F2308010F0030C00F01580BD
:1003D00011F8013BBCF1020F624498BF11F801CB48
:1003E00000F8013B38BF11F8013BA2F1040298BFAD
:1003F00000F801CB38BF00F8013B11F0030300F017
:100400002880083AC0F0088051F8043B083A51F8B7
:1004100004CBA0E80810F5E7121D5CBF51F8043BBF
:1004200040F8043BAFF30080D20724BF11F8013B32
:1004300011F801CB48BF11F8012B24BF00F8013B94
:1004400000F801CB48BF00F8012B70477047704798
:10045000704710B5203AC0F00B80B1E81850A0E802
:100460001850B1E81850A0E81850203ABFF4F5AF82
:100470005FEA027C24BFB1E81850A0E8185044BFDE
:1004800018C918C0BDE810405FEA827C24BF51F84B
:10049000043B40F8043B08BF7047D20728BF31F83F
:1004A000023B48BF11F8012B28BF20F8023B48BF90
:1004B00000F8012B7047754600F02CF8AE46050099
:1004C0006946534620F00700854618B020B5FFF76F
:1004D000CFFEBDE820404FF000064FF000074FF080
:1004E00000084FF0000BAC46ACE8C009ACE8C0090E
:1004F000ACE8C009ACE8C00921F007018D4670479F
:1005000010B50446AFF300802046BDE81040FFF769
:100510009ABE0000004870470800002001491820DA
:10052000ABBEFEE7260002007047000082B043F633
:100530000800C4F202000068C0F38220019001208C
:1005400000900198042806D3FFE70198C11E0120FE
:1005500088400090FFE740F20000C2F2000000680F
:100560000099B0FBF1F002B07047000080B50320A5
:100570000F21002200F06EF980BD000080B503203D
:100580000F21012200F066F980BD000083B08DF8D4
:1005900007009DF807000146009108283CD8009903
:1005A000DFE801F0050A10161C22282E3400002076
:1005B000C4F20200029032E040F20040C4F20200B5
:1005C00002902CE040F60000C4F20200029026E007
:1005D00040F60040C4F20200029020E041F2000028
:1005E000C4F2020002901AE041F20040C4F202009C
:1005F000029014E041F60000C4F2020002900EE006
:1006000041F60040C4F20200029008E042F200000D
:10061000C4F20200029002E000200290FFE702987C
:1006200003B0704780B503200C21012200F012F9BD
:1006300080BD000080B588B06946002004908860C5
:1006400048600860032005900C21012206920223D5
:10065000079300F02DF804990598069A079BEC463D
:10066000CCF80810CCF80410CCF800100D2100F0E4
:100670001FF804990598069A079BEC46CCF80810D9
:10068000CCF80410CCF800100E2100F011F80499F9
:100690000598069A079BEC46CCF80810CCF8041095
:1006A000CCF800100F2100F003F808B080BD000066
:1006B000B0B584B094468E4604460A980999089AC3
:1006C0008DF80F408DF80EE08DF80DC08DF80C30D0
:1006D0008DF80B208DF80A108DF809009DF80F0099
:1006E000FFF754FF0190019828B1FFE79DF80E0035
:1006F000102801DBFFE7ABE09DF80E00410003206E
:1007000000FA01F201990868904308609DF80D0015
:100710009DF80E10490000FA01F201990868104393
:1007200008609DF80D00012805D0FFE79DF80D0039
:1007300002280AD1FFE79DF80E10012000FA01F20D
:100740000199486890434860FFE79DF80E0041001A
:10075000032000FA01F3019A9168994391609DF892
:100760000C109DF80E20520001FA02F3019A9168D4
:10077000194391609DF80E10490000FA01F20199A9
:10078000C8689043C8609DF80B009DF80E104900A2
:1007900000FA01F20199C8681043C8609DF80D0085
:1007A00002283BD1FFE79DF80E00072818DCFFE781
:1007B0009DF80E0081000F2000FA01F20199086AED
:1007C000904308629DF8090000F00F009DF80E109C
:1007D000890000FA01F20199086A104308621CE0DE
:1007E0009DF80E0008388DF803009DF80300810085
:1007F0000F2000FA01F20199486A904348629DF87F
:10080000090000F00F009DF80310890000FA01F2C2
:100810000199486A10434862FFE7FFE79DF80D0021
:10082000012815D1FFE79DF80A0038B1FFE79DF8D0
:100830000E10012088400199886108E09DF80E00A3
:1008400000F110010120884001998861FFE7FFE76E
:1008500004B0B0BD80B582B08DF807008DF80610E9
:100860008DF805209DF80700FFF790FE0090009896
:1008700028B1FFE79DF80600102801DBFFE713E031
:100880009DF8050038B1FFE79DF80610012088406B
:100890000099886108E09DF8060000F11001012030
:1008A000884000998861FFE702B080BD43F63002BE
:1008B000C4F20202106840F48010106043F6400158
:1008C000C4F202010868086043F64403C4F202035C
:1008D00018681860106840F008001060086840F45C
:1008E000802008607047000080B543F60001C4F224
:1008F0000201086840F480300860FFE743F600001A
:10090000C4F2020000688003002801D4FFE7F5E785
:1009100043F60401C4F20201086840F48000086054
:10092000086848F20002CFF2FC0210400860086834
:1009300045F20842C0F200721043086043F600011D
:10094000C4F20201086840F080700860FFE743F6D7
:100950000000C4F2020000688001002801D4FFE713
:10096000F5E743F60041C4F20201086840F4E06094
:100970000860086840F00500086043F60801C4F20A
:100980000201086820F003000860086840F00200D7
:100990000860086840F41440086000F05DF8FFF754
:1009A00085FF80BD80B582B0009000980138B0F11D
:1009B000807F03D3FFE70120019019E00098013800
:1009C0004EF21401CEF2000108604FF0FF300F210B
:1009D00000F052FA4EF21801CEF200010020086039
:1009E0004EF21002CEF20002072111600190FFE7E3
:1009F000019802B080BD000082B0019040F26C40CE
:100A0000C2F2000000680090FFE740F26C40C2F2C2
:100A1000000000680099401A0199884201D2FFE75E
:100A2000F3E702B07047000080B540F20000C2F268
:100A30000000006844F6D351C1F26201A0FB01102E
:100A40008009FFF7AFFF80BD40F26C41C2F20001A8
:100A5000086801300860704786B000210591049154
:100A6000022003900291019043F60800C4F20200B4
:100A7000006800F00C0005900598009040B1FFE779
:100A8000009804280ED0FFE70098082814D059E0F9
:100A900040F20001C2F2000142F20040C0F2F40054
:100AA000086059E040F20001C2F2000141F200206A
:100AB000C0F27A0008604FE043F60400C4F202007E
:100AC0000168C1F380510291006800F03F0001907D
:100AD000029888B1FFE7019941F20020C0F27A0044
:100AE000B0FBF1F043F60401C4F202010968C1F35E
:100AF00088114843049010E0019942F20040C0F28E
:100B0000F400B0FBF1F043F60401C4F202010968FD
:100B1000C1F3881148430490FFE743F60400C4F290
:100B20000200006800F44031022000EBD130039055
:100B300004980399B0FBF1F040F20001C2F2000109
:100B4000086009E040F20001C2F2000142F20040F8
:100B5000C0F2F4000860FFE743F60800C4F20200A8
:100B60000068C0B2010941F26000C0F60000405CBC
:100B70000590059A40F20001C2F200010868D040D9
:100B8000086006B0704700004EF68851CEF20001B2
:100B9000086840F4700008607047000080B582B0BB
:100BA00044F60C01C4F20001086840F0200008601F
:100BB00027200190052100F03DF9019800F022F96D
:100BC00002B080BD80B584B044F60000C4F20000DD
:100BD000006803909DF80C00800600280CD5FFE704
:100BE00044F60400C4F2000000688DF80B009DF884
:100BF0000B0000F0EBF9FFE79DF80C000007002860
:100C000008D5FFE744F60400C4F200000068019034
:100C10000198FFE704B080BD80B588B0079043F627
:100C20003000C4F20200016841F008010160006870
:100C300040F60041C4F20201086820F47020086008
:100C4000086840F42020086040F60441C4F2020124
:100C5000086820F44070086040F60841C4F20201C0
:100C6000086820F470200860086840F420200860BC
:100C700040F60C41C4F20201086820F470200860BC
:100C8000086840F4A020086040F62441C4F2020144
:100C9000086820F0FF000860086840F077000860EE
:100CA00043F64000C4F20200016841F48021016073
:100CB000006844F60C01C4F200010191086820F4B8
:100CC00000500860FFF732FC06900698010F000103
:100CD000079A10EB520041F100010023FFF7DAFA06
:100CE0000A460199059204900498059A000940EA81
:100CF000027003900498039AA0EB02100290039AEA
:100D0000029800F00F0040EA021044F60802C4F214
:100D100000021060086820F4A0500860086840F0E5
:100D20000C000860086840F4005008600A20FFF7D3
:100D300063FE08B080BD000080B584B003900291CE
:100D400000208DF807000398029900F0FBF88DF859
:100D500007009DF8070004B080BD000080B586B094
:100D600005900020019004900598FFF70BFB0146C9
:100D7000019803910290FFE702980399884218D2E4
:100D8000FFE7FFE744F60000C4F200000068000639
:100D9000002801D4FFE7F5E705980299405C44F686
:100DA0000401C4F200010860FFE7029801300290DC
:100DB000E2E7FFE744F60000C4F2000000684006E6
:100DC000002801D4FFE7F5E706B080BD81B08DF8BB
:100DD00003009DF90300002812D4FFE79DF90310DA
:100DE00001F01F02012090404A094EF28011CEF21C
:100DF000000141F82200BFF34F8FBFF36F8FFFE771
:100E000001B0704781B08DF803009DF90300002800
:100E10000ED4FFE79DF9031001F01F02012090405E
:100E20004A094EF20011CEF2000141F82200FFE71C
:100E300001B0704782B08DF8070000919DF907005E
:100E400000280AD4FFE7009800019DF907104EF230
:100E50000042CEF2000288540BE0009800019DF899
:100E6000071001F00F014EF61452CEF20002885422
:100E7000FFE702B07047000082B08DF807000091D4
:100E80009DF9070000280AD4FFE7009800019DF9AA
:100E900007104EF20042CEF2000288540BE0009898
:100EA00000019DF8071001F00F014EF61452CEF22A
:100EB00000028854FFE702B07047000080B592B08E
:100EC00000200290119041F22E01C0F600010DF1B8
:100ED000120003903222FFF774FA02988DF8110085
:100EE000FFF702FDFFF7A0FD4FF49650FFF794FEC9
:100EF000FFF754FEFFF79EFBFFF794FB0398FFF705
:100F00002DFFFFE70DF112001E21FFF715FF8DF8F1
:100F100011009DF81100012812D1FFE7FFE70DF144
:100F20001200FFF71BFFFFF729FB4FF4FA70019047
:100F3000FFF762FDFFF71AFB0198FFF75DFDEEE793
:100F4000E0E7000080B584B002900191002000909D
:100F500040F26840C2F20000006818B9FFE70020C4
:100F6000039030E02720FFF731FF00200090FFE7DB
:100F700000980199884220D2FFE7009840F268016A
:100F8000C2F20001085C029A009BD054009A002033
:100F9000885440F26840C2F20000006808B9FFE7D8
:100FA0000BE040F26841C2F20001086801380860B5
:100FB000FFE7009801300090DAE72720FFF722FFD3
:100FC00001200390FFE7039804B080BD82B08DF844
:100FD000030040F26840C2F200000068B0F5806F84
:100FE00003D3FFE70020019011E09DF8030040F2D9
:100FF0006841C2F200010B6840F26802C2F20002CE
:10100000D05408680130086001200190FFE7019882
:1010100002B07047F1EE100A4FF6FF71C0F2C03116
:1010200020EA010040F04070E1EE100A7047486588
:101030006C6C6F2066726F6D2053544D33324634A2
:101040000D0A000000000000000000000000000089
:101050000000000000000000000000000000000090
:101060000000000000000000010203040607080958
:10107000901000080000002004000000EC010008AF
:101080009410000808000020680A00000C02000804
:041090000024F40044
:040000050800025598
:00000001FF
