:020000040800F2
:1000000070060020550200085D0200085F0200082B
:100010006102000863020008650200080000000099
:10002000000000000000000000000000670200085F
:1000300069020008000000006B02000809090008BE
:100040006F0200086F0200086F0200086F020008CC
:100050006F0200086F0200086F0200086F020008BC
:100060006F0200086F0200086F0200086F020008AC
:100070006F0200086F0200086F0200086F0200089C
:100080006F0200086F0200086F0200086F0200088C
:100090006F0200086F0200086F0200086F0200087C
:1000A0006F0200086F0200086F0200086F0200086C
:1000B0006F0200086F0200086F0200086F0200085C
:1000C0006F0200086F0200086F0200086F0200084C
:1000D0006F0200086F0200086F0200086F0200083C
:1000E0006F0200086F0200086F0200086F0200082C
:1000F0006F0200086F0200086F0200086F0200081C
:100100006F0200086F0200086F0200086F0200080B
:100110006F0200086F0200086F0200086F020008FB
:100120006F0200086F0200086F0200086F020008EB
:100130006F0200086F0200086F0200086F020008DB
:100140006F0200086F0200086F0200086F020008CB
:100150006F0200086F0200086F0200086F020008BB
:100160006F0200086F0200086F0200086F020008AB
:100170006F0200086F0200086F0200080000000014
:100180006F0200086F02000800F002F800F052F859
:1001900014A696E8000CB244B344DA4501D100F04D
:1001A00049F8BAE80F000FA696E83000A5EB040561
:1001B00004EB0607AAEB0704A7F101074FEA1515A0
:1001C0004FEA3414A4F10104AC4201D300F032F838
:1001D00013F0010F18BFFB1A43F0010300F001F800
:1001E000DBE718475C0B00007C0B0000103A24BFD3
:1001F00078C878C1FAD8520724BF30C830C144BF8C
:1002000004680C6070470000704700000023002461
:1002100000250026103A28BF78C1FBD8520728BF16
:1002200030C148BF0B6070471FB500F068FD1FBDAF
:1002300010B510BD00F0C8F81146FFF7F5FF00F04B
:1002400037FD00F0E6F803B4FFF7F2FF03BC00F05F
:10025000EDF800000948804709480047FEE7FEE73F
:10026000FEE7FEE7FEE7FEE7FEE7FEE7FEE7FEE766
:1002700004480549054A064B70470000490A000832
:100280008901000870000020700600207002002024
:100290007002002053EA020C00F069802DE9F04B57
:1002A0004FF00006002B1FBFB3FA83F503FA05F4E5
:1002B00024FA05F65E4012BF1643B2FA82F502FA3E
:1002C00005F4C5F120051EBF22FA05FC44EA0C0422
:1002D000203556EA044C4FEA144418BF641C4FF012
:1002E00000084FF00009904271EB030C39D300294C
:1002F00019BFB1FA81F701FA07F6B0FA80F700FAF0
:1003000007F6C7F120071EBF20FA07FC46EA0C06D5
:100310002037B6FBF4FCA7EB0507103F07F01F0BD7
:10032000CBF120062CFA06F60CFA0BFB44BFB346C1
:100330000026202FA4BF5E464FF0000B5BEA060CA0
:1003400008BF4FF0010B19EB0B0948EB0608ABFB9C
:10035000027C06FB02CC0BFB03CCC01B71EB0C0137
:10036000C1E70B46024641464846BDE8F08B13B54F
:10037000084318BF4FF0FF300146AFF30080BDE8DF
:100380001C40704710B5431C02E010F8011B71B10E
:100390008107FAD14FF0013202C88C1A8C4314EA5B
:1003A000C211F9D0C01A0A0603D0C01E10BDC01A6F
:1003B00010BD0A0401D0801E10BD0902FCD0401EF1
:1003C00010BD704770477047754600F02BF8AE4679
:1003D00005006946534620F00700854618B020B551
:1003E000FFF746FFBDE820404FF000064FF0000742
:1003F0004FF000084FF0000BAC46ACE8C009ACE889
:10040000C009ACE8C009ACE8C00921F007018D467D
:10041000704710B50446AFF300802046BDE8104099
:10042000FFF711BF0048704708000020014918205D
:10043000ABBEFEE7260002007047000082B043F624
:100440000800C4F202000068C0F38220019001207D
:1004500000900198042806D3FFE70198C11E0120EF
:1004600088400090FFE740F20000C2F20000006800
:100470000099B0FBF1F002B07047000080B5032096
:100480000F21012200F05EF980BD000083B08DF8DD
:1004900007009DF807000146009108283CD8009904
:1004A000DFE801F0050A10161C22282E3400002077
:1004B000C4F20200029032E040F20040C4F20200B6
:1004C00002902CE040F60000C4F20200029026E008
:1004D00040F60040C4F20200029020E041F2000029
:1004E000C4F2020002901AE041F20040C4F202009D
:1004F000029014E041F60000C4F2020002900EE007
:1005000041F60040C4F20200029008E042F200000E
:10051000C4F20200029002E000200290FFE702987D
:1005200003B0704780B588B06946002004908860A9
:1005300048600860032005900C21012206920223E6
:10054000079300F02DF804990598069A079BEC464E
:10055000CCF80810CCF80410CCF800100D2100F0F5
:100560001FF804990598069A079BEC46CCF80810EA
:10057000CCF80410CCF800100E2100F011F804990A
:100580000598069A079BEC46CCF80810CCF80410A6
:10059000CCF800100F2100F003F808B080BD000077
:1005A000B0B584B094468E4604460A980999089AD4
:1005B0008DF80F408DF80EE08DF80DC08DF80C30E1
:1005C0008DF80B208DF80A108DF809009DF80F00AA
:1005D000FFF75CFF0190019828B1FFE79DF80E003E
:1005E000102801DBFFE7ABE09DF80E00410003207F
:1005F00000FA01F201990868904308609DF80D0027
:100600009DF80E10490000FA01F2019908681043A4
:1006100008609DF80D00012805D0FFE79DF80D004A
:1006200002280AD1FFE79DF80E10012000FA01F21E
:100630000199486890434860FFE79DF80E0041002B
:10064000032000FA01F3019A9168994391609DF8A3
:100650000C109DF80E20520001FA02F3019A9168E5
:10066000194391609DF80E10490000FA01F20199BA
:10067000C8689043C8609DF80B009DF80E104900B3
:1006800000FA01F20199C8681043C8609DF80D0096
:1006900002283BD1FFE79DF80E00072818DCFFE792
:1006A0009DF80E0081000F2000FA01F20199086AFE
:1006B000904308629DF8090000F00F009DF80E10AD
:1006C000890000FA01F20199086A104308621CE0EF
:1006D0009DF80E0008388DF803009DF80300810096
:1006E0000F2000FA01F20199486A904348629DF890
:1006F000090000F00F009DF80310890000FA01F2D4
:100700000199486A10434862FFE7FFE79DF80D0032
:10071000012815D1FFE79DF80A0038B1FFE79DF8E1
:100720000E10012088400199886108E09DF80E00B4
:1007300000F110010120884001998861FFE7FFE77F
:1007400004B0B0BD80B582B08DF807008DF80610FA
:100750008DF805209DF80700FFF798FE009000989F
:1007600028B1FFE79DF80600102801DBFFE713E042
:100770009DF8050038B1FFE79DF80610012088407C
:100780000099886108E09DF8060000F11001012041
:10079000884000998861FFE702B080BD43F63002CF
:1007A000C4F20202106840F48010106043F6400169
:1007B000C4F202010868086043F64403C4F202036D
:1007C00018681860106840F008001060086840F46D
:1007D000802008607047000080B543F60001C4F235
:1007E0000201086840F480300860FFE743F600002B
:1007F000C4F2020000688003002801D4FFE7F5E797
:1008000043F60401C4F20201086840F48000086065
:10081000086848F20002CFF2FC0210400860086845
:1008200045F20842C0F200721043086043F600012E
:10083000C4F20201086840F080700860FFE743F6E8
:100840000000C4F2020000688001002801D4FFE724
:10085000F5E743F60041C4F20201086840F4E060A5
:100860000860086840F00500086043F60801C4F21B
:100870000201086820F003000860086840F00200E8
:100880000860086840F41440086000F045F8FFF77D
:1008900085FF80BD80B582B0009000980138B0F12E
:1008A000807F03D3FFE70120019019E00098013811
:1008B0004EF21401CEF2000108604FF0FF300F211C
:1008C00000F0D4F94EF21801CEF2000100200860C9
:1008D0004EF21002CEF20002072111600190FFE7F4
:1008E000019802B080BD000080B540F20000C2F265
:1008F0000000006844F6D351C1F26201A0FB011070
:100900008009FFF7C7FF80BD40F26801C2F2000115
:10091000086801300860704786B000210591049195
:10092000022003900291019043F60800C4F20200F5
:10093000006800F00C0005900598009040B1FFE7BA
:10094000009804280ED0FFE70098082814D059E03A
:1009500040F20001C2F2000142F20040C0F2F40095
:10096000086059E040F20001C2F2000141F20020AB
:10097000C0F27A0008604FE043F60400C4F20200BF
:100980000168C1F380510291006800F03F000190BE
:10099000029888B1FFE7019941F20020C0F27A0085
:1009A000B0FBF1F043F60401C4F202010968C1F39F
:1009B00088114843049010E0019942F20040C0F2CF
:1009C000F400B0FBF1F043F60401C4F2020109683F
:1009D000C1F3881148430490FFE743F60400C4F2D2
:1009E0000200006800F44031022000EBD130039097
:1009F00004980399B0FBF1F040F20001C2F200014B
:100A0000086009E040F20001C2F2000142F2004039
:100A1000C0F2F4000860FFE743F60800C4F20200E9
:100A20000068C0B2010940F61850C0F60000405CF2
:100A30000590059A40F20001C2F200010868D0401A
:100A4000086006B0704700004EF68851CEF20001F3
:100A5000086840F4700008607047000080B58AB0F4
:100A6000099043F63000C4F20200016841F0080129
:100A70000160006840F60041C4F20201086820F4F9
:100A800070200860086840F42020086040F60441A7
:100A9000C4F20201086820F44070086040F6084182
:100AA000C4F20201086820F470200860086840F46D
:100AB0002020086040F60C41C4F20201086820F4CE
:100AC00070200860086840F4A020086040F62441C7
:100AD000C4F20201086820F0FF000860086840F0D6
:100AE0007700086043F64000C4F20200016841F458
:100AF00080210160006844F60C01C4F200010091FD
:100B0000086820F400500860FFF798FC08900898E7
:100B1000010F0001099A10EB520041F1000100237E
:100B20000193FFF7B7FB009A0346019802930B4627
:100B30000299079306910699079B090941EA0371F7
:100B400005910699059BA1EB03110491059B04995E
:100B500001F00F0141EA031144F60803C4F2000357
:100B60001960116821F4A0511160116841F00C0165
:100B70001160116841F4005111600390FFE7039880
:100B8000B0F57A7F06DAFFE700BFFFE70398013090
:100B90000390F4E70AB080BD81B0FFE744F600009F
:100BA000C4F2000000688006002801D4FFE7F5E7E2
:100BB00044F60400C4F2000000688DF803009DF8BC
:100BC000030001B07047000083B002900191002043
:100BD0000090FFE700980199884218D2FFE7FFE7ED
:100BE00044F60000C4F2000000680006002801D4AA
:100BF000FFE7F5E702980099405C44F60401C4F26F
:100C000000010860FFE7009801300090E2E7FFE78D
:100C100044F60000C4F2000000684006002801D439
:100C2000FFE7F5E703B0704781B08DF80300FFE7F9
:100C300044F60000C4F2000000680006002801D459
:100C4000FFE7F5E79DF8030044F60401C4F2000154
:100C50000860FFE744F60000C4F2000000684006A8
:100C6000002801D4FFE7F5E701B0704782B08DF8A6
:100C7000070000919DF9070000280AD4FFE70098BB
:100C800000019DF907104EF20042CEF20002885496
:100C90000BE0009800019DF8071001F00F014EF6DF
:100CA0001452CEF200028854FFE702B070470000F1
:100CB00080B584B000200390FFF78EFDFFF714FE8F
:100CC0004FF41650FFF7CAFEFFF72CFC40F62850F1
:100CD000C0F600000290FFF7D1FB02980090FFF7EA
:100CE00051FB01460098FFF76FFFFFE7FFF754FF46
:100CF0008DF807009DF80700FFF796FFF6E7F1EE85
:100D0000100A4FF6FF71C0F2C03120EA010040F036
:100D10004070E1EE100A7047000000000000000083
:100D2000010203040607080948656C6C6F206672AF
:100D30006F6D20555341525433210D0A00000000BD
:100D4000600D00080000002004000000EC01000815
:100D5000640D000808000020680600000C0200086E
:040D60000024F40077
:040000050800025598
:00000001FF
