:020000040800F2
:1000000070060020550200085D0200085F0200082B
:100010006102000863020008650200080000000099
:10002000000000000000000000000000670200085F
:1000300069020008000000006B020008B503000818
:100040006F0200086F0200086F0200086F020008CC
:100050006F0200086F0200086F0200086F020008BC
:100060006F0200086F0200086F0200086F020008AC
:100070006F0200086F0200086F0200086F0200089C
:100080006F0200086F0200086F0200086F0200088C
:100090006F0200086F0200086F0200086F0200087C
:1000A0006F0200086F0200086F0200086F0200086C
:1000B0006F0200086F0200086F0200086F0200085C
:1000C0006F0200086F0200086F0200086F0200084C
:1000D0006F0200086F0200086F0200086F0200083C
:1000E0006F0200086F0200086F0200086F0200082C
:1000F0006F0200086F0200086F0200086F0200081C
:100100006F0200086F0200086F0200086F0200080B
:100110006F0200086F0200086F0200086F020008FB
:100120006F0200086F0200086F0200086F020008EB
:100130006F0200086F0200086F0200086F020008DB
:100140006F0200086F0200086F0200086F020008CB
:100150006F0200086F0200086F0200086F020008BB
:100160006F0200086F0200086F0200086F020008AB
:100170006F0200086F0200086F0200080000000014
:100180006F0200086F02000800F002F800F052F859
:1001900014A696E8000CB244B344DA4501D100F04D
:1001A00049F8BAE80F000FA696E83000A5EB040561
:1001B00004EB0607AAEB0704A7F101074FEA1515A0
:1001C0004FEA3414A4F10104AC4201D300F032F838
:1001D00013F0010F18BFFB1A43F0010300F001F800
:1001E000DBE71847D8020000F8020000103A24BFED
:1001F00078C878C1FAD8520724BF30C830C144BF8C
:1002000004680C6070470000704700000023002461
:1002100000250026103A28BF78C1FBD8520728BF16
:1002200030C148BF0B6070471FB500F039F91FBDE2
:1002300010B510BD00F031F81146FFF7F5FF00F0E2
:10024000EDF800F04FF803B4FFF7F2FF03BC00F045
:1002500057F800000948804709480047FEE7FEE7D5
:10026000FEE7FEE7FEE7FEE7FEE7FEE7FEE7FEE766
:1002700004480549054A064B70470000C5030008BD
:100280008901000870000020700600207002002024
:1002900070020020704770477047754600F02CF8D8
:1002A000AE4605006946534620F00700854618B063
:1002B00020B5FFF7DDFFBDE820404FF000064FF00E
:1002C00000074FF000084FF0000BAC46ACE8C00947
:1002D000ACE8C009ACE8C009ACE8C00921F00701EE
:1002E0008D46704710B50446AFF300802046BDE848
:1002F0001040FFF7A8BF000000487047080000202A
:1003000001491820ABBEFEE726000200704700003E
:1003100080B582B0009000980138B0F1807F03D39F
:10032000FFE70120019019E0009801384EF2140116
:10033000CEF2000108604FF0FF300F2100F04CF8C2
:100340004EF21801CEF20001002008604EF21002B9
:10035000CEF20002072111600190FFE7019802B080
:1003600080BD000082B0019040F26800C2F200003F
:1003700000680090FFE740F26800C2F200000068E9
:100380000099401A0199884201D2FFE7F3E702B0D1
:100390007047000080B540F20000C2F20000006823
:1003A00044F6D351C1F26201A0FB01108009FFF7AE
:1003B000AFFF80BD40F26801C2F200010868013061
:1003C000086070474EF68851CEF20001086840F48C
:1003D000700008607047000082B08DF8070000913F
:1003E0009DF9070000280AD4FFE7009800019DF955
:1003F00007104EF20042CEF2000288540BE0009843
:1004000000019DF8071001F00F014EF61452CEF2D4
:1004100000028854FFE702B07047000080B584B046
:100420000020039043F63001C4F20201086840F056
:100430000800086040F60041C4F20201086820F09C
:1004400040700860086840F08070086040F6044121
:10045000C4F20201086820F48050086040F60C41A4
:10046000C4F20201086820F040700860FFF792FFB4
:10047000FFE740F61441C4F202010191086840F41C
:10048000805008604FF4FA700290FFF76BFF019AFA
:100490000298116821F480511160FFF763FFE8E7CB
:1004A000F1EE100A4FF6FF71C0F2C03120EA0100F0
:1004B00040F04070E1EE100A70470000DC040008D4
:1004C0000000002004000000EC010008E004000827
:1004D00008000020680600000C0200080024F40058
:040000050800025598
:00000001FF
